:100000000C942A000C943C000C943C000C943C0092
:100010000C943C000C943C000C943C000C943C0070
:100020000C943C000C943C000C943C000C943C0060
:100030000C943C000C943C000C943C000C943C0050
:100040000C943C000C943C000C943C000C943C0040
:100050000C943C0011241FBECFE5D4E0DEBFCDBF21
:1000600010E0A0E6B0E001C01D92A136B107E1F7B3
:100070000E945E000C9472020C94000021E030E0BB
:1000800002C0220F331F8A95E2F72095809160000D
:10009000282320936000822F0E946700089521E0AA
:1000A00030E002C0220F331F8A95E2F78091600092
:1000B000822B809360000E94670008958EE087BBCA
:1000C00080E181BB0E94D3000E946700FBCF87FDC7
:1000D00039C0C298C198C19A282F220F86FD39C015
:1000E000C298C198C19A922F990F26FD39C0C29823
:1000F000C198C19A892F880F96FD39C0C298C198BE
:10010000C19A982F990F86FD39C0C298C198C19A9B
:10011000892F880F96FD39C0C298C198C19A982F2F
:10012000990F86FD39C0C298C198C19A96FD39C011
:10013000C298C198C19AC398C39A80E09CE601977F
:10014000F1F70895C29AC198C19A282F220F86FF0D
:10015000C7CFC29AC198C19A922F990F26FFC7CFD5
:10016000C29AC198C19A892F880F96FFC7CFC29AA9
:10017000C198C19A982F990F86FFC7CFC29AC1988C
:10018000C19A892F880F96FFC7CFC29AC198C19A8A
:10019000982F990F86FFC7CFC29AC198C19A96FF30
:1001A000C7CFC29AC6CFDF93CF9300D0CDB7DEB70B
:1001B0001A8219829498949A9498B099ABC08981C4
:1001C0009A81880F991F9A838983C198C19AB0999F
:1001D000B0C089819A81880F991F9A838983C198B9
:1001E000C19AB099B5C089819A81880F991F9A8365
:1001F0008983C198C19AB099BAC089819A81880FC0
:10020000991F9A838983C198C19AB099BFC0898187
:100210009A81880F991F9A838983C198C19AB0994E
:10022000C4C089819A81880F991F9A838983C19854
:10023000C19AB099C9C089819A81880F991F9A8300
:100240008983C198C19AB099CEC089819A81880F5B
:10025000991F9A838983C198C19AB099D3C0898123
:100260009A81880F991F9A838983C198C19AB099FE
:10027000D8C089819A81880F991F9A838983C198F0
:10028000C19AB099DDC089819A81880F991F9A839C
:100290008983C198C19AB099E2C089819A81880FF7
:1002A000991F9A838983C198C19AB099E7C08981BF
:1002B0009A81880F991F9A838983C198C19AB099AE
:1002C000ECC089819A81880F991F9A838983C1988C
:1002D000C19AB099F1C089819A81880F991F9A8338
:1002E0008983C198C19AB09BF6C089819A81880F91
:1002F000991F9A83898389819A8101969A83898338
:10030000C198C19A29813A81C9010F900F90CF916C
:10031000DF91089589819A81880F991F9A83898333
:1003200089819A8101969A838983C198C19AB09BE9
:1003300050CF89819A81880F991F9A8389838981F7
:100340009A8101969A838983C198C19AB09B4BCFB9
:1003500089819A81880F991F9A83898389819A81DB
:1003600001969A838983C198C19AB09B46CF8981AF
:100370009A81880F991F9A83898389819A8101962E
:100380009A838983C198C19AB09B41CF89819A8110
:10039000880F991F9A83898389819A8101969A830C
:1003A0008983C198C19AB09B3CCF89819A81880F7B
:1003B000991F9A83898389819A8101969A83898377
:1003C000C198C19AB09B37CF89819A81880F991FB4
:1003D0009A83898389819A8101969A838983C198B6
:1003E000C19AB09B32CF89819A81880F991F9A83D5
:1003F000898389819A8101969A838983C198C19A58
:10040000B09B2DCF89819A81880F991F9A83898308
:1004100089819A8101969A838983C198C19AB09BF8
:1004200028CF89819A81880F991F9A83898389812E
:100430009A8101969A838983C198C19AB09B23CFF0
:1004400089819A81880F991F9A83898389819A81EA
:1004500001969A838983C198C19AB09B1ECF8981E6
:100460009A81880F991F9A83898389819A8101963D
:100470009A838983C198C19AB09B19CF89819A8147
:10048000880F991F9A83898389819A8101969A831B
:100490008983C198C19AB09B14CF89819A81880FB2
:1004A000991F9A83898389819A8101969A83898386
:1004B000C198C19AB09B0FCF89819A81880F991FEB
:1004C0009A83898389819A8101969A838983C198C5
:1004D000C19AB0990ACF89819A81880F991F9A830E
:0804E00089830ECFF894FFCFD1
:00000001FF
