:100000000C942A000C943C000C943C000C943C0092
:100010000C943C000C943C000C943C000C943C0070
:100020000C943C000C943C000C943C000C943C0060
:100030000C943C000C943C000C943C000C943C0050
:100040000C943C000C943C000C943C000C943C0040
:100050000C943C0011241FBECFE5D4E0DEBFCDBF21
:1000600010E0A0E6B0E001C01D92A136B107E1F7B3
:100070000E943E000C9496000C9400008EE087BB1A
:1000800080E181BB0E945E000E944700FBCF20E020
:1000900030E087FF02C0C29A01C0C298C198C19ADD
:1000A0002F5F3F4F2830310511F0880FF2CFC398F2
:1000B000C39A80E09CE60197F1F70895949A94988A
:1000C000949A20E030E040E050E0220F331F86B3E6
:1000D00090E081709070282B392BC198C19A4F5FA6
:1000E0005F4F4031510589F7C901089521E030E0A3
:1000F00002C0220F331F8A95E2F780916000822BA5
:10010000809360000E944700089521E030E002C023
:10011000220F331F8A95E2F72095809160002823F3
:1001200020936000822F0E9447000895F894FFCF2B
:00000001FF
