:100000000C942A000C9447000C9447000C94470071
:100010000C9447000C9447000C9447000C94470044
:100020000C9447000C9447000C9447000C94470034
:100030000C9447000C9447000C9447000C94470024
:100040000C9447000C9447000C9447000C94470014
:100050000C94470011241FBECFE5D4E0DEBFCDBF16
:1000600010E0A0E6B0E0E0EDF4E002C005900D92F3
:10007000A836B107D9F710E0A8E6B0E001C01D929C
:10008000A13CB107E1F70E94C4000C9466020C94F5
:10009000000080FF02C0AA9A01C0AA9881FF02C096
:1000A000AB9A01C0AB9882FF02C0AC9A01C0AC9879
:1000B00083FF02C0AD9A0895AD980895FF920F9303
:1000C0001F93F82E979A82958F700E94490004E141
:1000D00011E0C8010197F1F79798C8010197F1F76E
:1000E000979A8F2D0E944900C8010197F1F79798C0
:1000F000C8010197F1F71F910F91FF900895AE9AF3
:100100000E945E000895AE980E945E0008950F93CD
:100110001F938CE20E94830004E111E0C801019763
:10012000F1F78DE00E948300C8010197F1F786E0A6
:100130000E948300C8010197F1F781E00E948300CB
:1001400087E491E10197F1F780E80E9483001F9115
:100150000F9108951F93CF93DF93EC0110E005C03A
:10016000183019F480EC0E9483009E012170822FC8
:10017000805D0E947F00D695C7951F5F103180F388
:10018000DF91CF911F910895CF93DF938FEB8ABBBF
:100190008EEF87BB8CE784BB8FE981BB0E94870011
:1001A00081E00E94F80080E80E94830020E23EE4A3
:1001B000C4E1D1E005C0CE010197F1F721503040F4
:1001C00021153105C1F70E940C010E94F80084EF4F
:1001D00091E0FE013197F1F70197D9F780E80E948D
:1001E00083000E940C010E94AA0020E23EE4E3CFBB
:1001F00090E087FF02C0C29A01C0C298C198C19A1C
:100200009F5F983011F0880FF4CFC398C39A80E0B5
:100210009CE60197F1F70895949A9498949A20E0B7
:1002200030E040E0220F331F86B390E08170907081
:10023000282B392BC198C19A4F5F403199F7C901DA
:10024000089521E030E002C0220F331F8A95E2F7C3
:1002500080916800822B809368000E94F8000895C6
:1002600021E030E002C0220F331F8A95E2F720958B
:1002700080916800282320936800822F0E94F80054
:10028000089582E08BB98CE089B988E18AB9089534
:100290001F93182F873049F46091BF007091C00000
:1002A00080E690E00E94220208C08A3019F48DE0B6
:1002B0000E9448015D9BFECF1CB980E090E01F9139
:1002C0000895EF92FF920F931F93CF93DF937C01DA
:1002D0008091690090916A00892B09F097C00BE624
:1002E00010E05F9BFECF5C9B03C02EEF3FEFA2C0F0
:1002F0005B999EC09CB19D3011F09A3069F48AE000
:10030000F8018083B7010E9448018BE690E090934A
:100310006A00809369007AC0993009F490E2892FCD
:1003200080528F3510F0903A70F0F0E00A3B1F07D2
:1003300011F487E004C0F80191938F01892FB70170
:100340000E944801CECF923131F1933130F4933095
:1003500009F46EC0983029F609C0973109F44BC0F2
:100360009F3721F0953109F0BCCF32C0F0E00B3659
:100370001F0709F008F4B5CF88E0B7010E944801D3
:1003800080E2B7010E94480188E0B7010E9448015D
:1003900001501040A6CF8DE0B7010E944801CBE686
:1003A000D0E004C08991B7010E944801C017D1076D
:1003B000C8F397CF88E0B7010E94480180E2B701F7
:1003C0000E94480188E0B7010E9448010150104096
:1003D00080E00B36180709F068F783CF88E0B70193
:1003E0000E94480180E2B7010E94480188E0B701FD
:1003F0000E9448018E01E0E00B361E0709F008F468
:1004000070CFE8018A91803249F76BCFE0916900A3
:10041000F0916A008191F0936A00E09369008A305C
:1004200021F410926A0010926900282F30E002C077
:100430002FEF3FEFC901DF91CF911F910F91FF90F7
:10044000EF900895EF92FF920F931F93CF93DF9356
:100450007C018B01DB0113968C9181FD03C0CFEFF2
:10046000DFEF13C0C0E0D0E00BC0D8011896ED91CB
:10047000FC911997B8010995892B11F0CFEFDFEFA7
:10048000F70181917F01882381F7CE01CDB7DEB7D7
:10049000E6E00C9457022A88398848885F846E8485
:1004A0007D848C849B84AA84B984C884DF80EE8098
:1004B000FD800C811B81AA81B981CE0FD11D0FB6A1
:1004C000F894DEBF0FBECDBFED010895F894FFCFC5
:0804D0002A72696E672A0A0016
:00000001FF
