:100000000C942A000C943C000C943C000C943C0092
:100010000C943C000C943C000C943C000C943C0070
:100020000C943C000C943C000C943C000C943C0060
:100030000C943C000C943C000C943C000C943C0050
:100040000C943C000C943C000C943C000C943C0040
:100050000C943C0011241FBECFE5D4E0DEBFCDBF21
:1000600010E0A0E6B0E001C01D92A136B107E1F7B3
:100070000E94AC000C9444010C94000080FF02C06C
:10008000AA9A01C0AA9881FF02C0AB9A01C0AB989E
:1000900082FF02C0AC9A01C0AC9883FF02C0AD9A47
:1000A0000895AD980895FF920F931F93F82E979A95
:1000B00082958F700E943E0004E111E0C801019713
:1000C000F1F79798C8010197F1F7979A8F2D0E9441
:1000D0003E00C8010197F1F79798C8010197F1F721
:1000E0001F910F91FF900895AE9A0E9453000895BA
:1000F000AE980E94530008950F931F938CE20E94C4
:10010000780004E111E0C8010197F1F78DE00E9449
:100110007800C8010197F1F781E00E9478001F91F3
:100120000F9108950F931F93CF93DF938C0180E875
:100130000E947800C0E0D0E0802F8170805D0E9436
:100140007400000F111F2196C031D105A9F7DF916E
:10015000CF911F910F910895EF92FF920F931F93EC
:10016000CF93DF938FEB8ABB8EEF87BB8CE784BB8B
:100170008FE981BB0E947C0004E111E0C801019776
:10018000F1F784E10E947800C8010197F1F782E05D
:100190000E94780081E40E94740080E090E024E1F5
:1001A000E22E21E0F22E8C010E940F010E94FB0042
:1001B00080E593ECF7013197F1F70197D9F70E94A9
:1001C0000F01892F0E94FB0082E00E947800C0E0AE
:1001D000D0E09E01200F822F0E9474002196C03231
:1001E000D105B9F7C8010F9600E010E08F3F9105E7
:1001F000D1F2CCF2D9CF90E087FF02C0C29A01C001
:10020000C298C198C19A9F5F983011F0880FF4CFBF
:10021000C398C39A80E09CE60197F1F70895949AF9
:100220009498949A20E030E040E0220F331F86B388
:1002300090E081709070282B392BC198C19A4F5F44
:10024000403199F7C901089521E030E002C0220F42
:10025000331F8A95E2F780916000822B80936000C3
:100260000E94FB00089521E030E002C0220F331FFE
:100270008A95E2F720958091600028232093600002
:0C028000822F0E94FB000895F894FFCF2D
:00000001FF
