:100000000C942A000C943C000C943C000C943C0092
:100010000C943C000C943C000C943C000C943C0070
:100020000C943C000C943C000C943C000C943C0060
:100030000C943C000C943C000C943C000C943C0050
:100040000C943C000C943C000C943C000C943C0040
:100050000C943C0011241FBECFE5D4E0DEBFCDBF21
:1000600010E0A0E6B0E001C01D92A136B107E1F7B3
:100070000E945E000C94A0000C94000021E030E08F
:1000800002C0220F331F8A95E2F72095809160000D
:10009000282320936000822F0E946F00089521E0A2
:1000A00030E002C0220F331F8A95E2F78091600092
:1000B000822B809360000E946F000895CF93DF939E
:1000C0008EE087BB80E181BBCCECDAE00E9482004D
:1000D0008B7F0E946F00CE010197F1F7F7CF20E0F0
:1000E00030E087FF02C0C29A01C0C298C198C19A8D
:1000F0002F5F3F4F2830310511F0880FF2CFC398A2
:10010000C39A08959498949A94980000C19820E016
:1001100030E040E050E0C901880F991FB09B04C057
:100120009C012F5F3F4F01C09C01C1980000C19A04
:1001300000004F5F5F4F4830510569F7C9010895CE
:04014000F894FFCF61
:00000001FF
